:02000002D0002C
:1040000000400D00486A0D00000005000C0005018D
:0840100004019301000000000F
:10401800A4640D0009480A49884208B505D0094A30
:10402800824202D0121A02F0F5F90748074A002125
:10403800121A02F0FAF9014808BD00BF88E203200D
:1040480070690D0038E3032038E30320F0E703200C
:1040580070B501F0B9FC074C074BE41AA408002519
:104068001E46A54204D056F8253098470135F8E792
:1040780070BD00BF68690D0008690D0000F036B812
:1040880008B500F08FF8BDE8084001F06BBC01F0FE
:104098000DBB01F00BBB0078B0FA80F04009704707
:1040A800012303707047000038B50D4D002435F822
:1040B8002400012101F0CEFF35F82400002101344D
:1040C80001F0D9FF082CF2D1064D0024295D0648DD
:1040D8000022013400F079FE082CF7D138BD00BF6A
:1040E8008CE20320ACE203206CE3032070B501F0FE
:1040F80041FD4FF4165101F031FD00211B481C4EC3
:104108001C4D00F007FEFFF7CFFF0024315D174874
:10411800012200F015FE295D14480022013400F048
:104128000FFE082CF2D1144E144D154C154800F012
:1041380035FF154800F0CEFC33682A68216813481B
:1041480000F050FF124800F0F3FB33682A6821683A
:10415800104800F061FE104800F0DAF80F4801F04E
:1041680003F80F48BDE8704000F00AB96CE303207B
:10417800ACE20320B4E20320BCE20320C0E2032047
:1041880088E2032064E3032058E3032040E303208C
:1041980054E3032070E303203CE3032050E30320AF
:1041A80060E3032008B50121354800F0D5FD354B03
:1041B800187008285FD8DFE800F057050F19293371
:1041C800434D5700FFF770FF2F4800F0F1FEFA202B
:1041D800BDE8084001F088BBFFF766FF2B4800F0F8
:1041E8008FFCFA20BDE8084001F07EBBFFF75CFFBA
:1041F800274B284A28491B6828481268096800F094
:1042080017FFFA20BDE8084001F06EBBFFF74CFF2E
:10421800234800F0C9FBFA20BDE8084001F064BB60
:10422800FFF742FF1A4B1B4A1B491B681D481268BF
:10423800096800F00BFEFA20BDE8084001F054BB05
:10424800FFF732FF184800F0A7FFFA20BDE8084042
:1042580001F04ABBFFF728FF144800F09FF8FA2046
:10426800BDE8084001F040BBFFF71EFFFA20BDE89B
:10427800084001F039BBBDE80840FFF715BF00BF93
:104288006CE303206DE3032064E3032058E3032079
:10429800BCE20320C0E2032088E2032040E30320BD
:1042A80054E3032070E3032050E3032060E303207A
:1042B80008B501F017F800210C4800F06DFE0C4815
:1042C80000F006FC0B4800F086FE0B4800F02EFBC1
:1042D8000A4800F01BF80A4800F044FF094800F0BB
:1042E80093FD0948BDE8084000F048B864E303209E
:1042F80058E3032040E3032054E303203CE3032076
:1043080050E3032070E3032060E3032070470000BC
:1043180010B501F02FFC0B4C0B4901F06EFA01208F
:1043280001F040F9204600F0A2F8FF21204600F0F5
:10433800C7FA204600F0D2F800210E20BDE8104050
:1043480001F088BE7CE30320B8640D0010B5084C6A
:1043580000F0C8FF122201212046022300F0ACF829
:104368002046044A0449BDE8104001F0F7BE00BFEA
:104378007CE3032038E3032021440D00704700004C
:1043880008B501F0F7FB044901F037FA00210E20C7
:10439800BDE8084001F05EBEF0640D0010B501F004
:1043A800E9FB03681B69984768B301F0E3FB0368FE
:1043B800154C5B6998470E2001F076FE206001F0ED
:1043C800D9FB21680A2201F073FA01F0D3FB2168B6
:1043D8000A2201F06DFA01F0CDFB2168102201F0EC
:1043E80067FA01F0C7FB2168082201F061FA01F0C1
:1043F800C1FB2168022201F05BFA4FF47A70BDE834
:10440800104001F071BA10BD90E3032000F06ABFBC
:1044180000F0B8BF00F0AEBF10B50446C06808B1E0
:1044280001F044F923781BB10021E07901F012FE74
:10443800204610BD38B50446C0680D4608B101F0E5
:1044480035F9A379062B0CBF0420032010FB05F0D7
:1044580080B2A08001F022F9E06028B1A288002192
:1044680001F0E3FF658038BDA080608038BD10B5DD
:1044780004460121C07901F0EDFD0021E07901F049
:10448800FAFD0123237010BD38B5037805460C46A4
:104498001BB10021C07901F0DDFD2B78EC7153B11F
:1044A800A4B22046012101F0D5FD20460021BDE837
:1044B800384001F0E0BD38BD70B500250446164609
:1044C800837105700572C5600561FFF7B3FF20466B
:1044D8003146FFF7D9FF204670BD0000C368002BA6
:1044E80000F08B812DE9F04F8379023BDBB2042B7E
:1044F8009CBFC44A52F8234087B0054688BF32247F
:10450800FFF786FF2B69C01AA042F9D3BE4AAB88D1
:1045180007CA06AC04E90700039C1B01D4F8002570
:104528000433019322B9D4F86035002BC0F25581C9
:10453800049CD4F8003523B9D4F86035002BC0F2B8
:104548003C81059CD4F800351BB9D4F86035002BA4
:104558006EDBAE4BEA791E68AD4CAE49E0681201DD
:10456800B31840F080705B78B75CE0600A6803F0CD
:104578001F0343EA471301273A430A600C46A888F9
:10458800D5F80C90D4F804A09F408846002844D061
:10459800CC4600224FF0A0411CF801EB08208026F1
:1045A80063689B1A462BFBD9D8F80420D1F8083544
:1045B8001EEA060F43EA0703C1F808352FD06368DF
:1045C8009B1A282BFBD9D1F80C35013843EA07038D
:1045D8004FEA5606C1F80C35E2D1C9EB0C03A8889E
:1045E8009BB29842D8D84FF4307303FB00F063684D
:1045F8009B1A462BFBD9D8F80430CAEB030A82452C
:10460800C0F0D5804FF49670FFF704FFA888D5F85E
:104618000C90D4F804A00028BAD10246E7E76368F2
:104628009B1A112BCFD863689B1A112BF7D9CAE7AD
:10463800D4F86435002B8CDAD4F86835002B88DA86
:10464800D4F86C35002B84DA019801F027F800289B
:104658003FF47FAFAB88002B00F0D08000273B46AB
:104668006D4E6E4900E01346EA68D25D03F1010E13
:1046780012F0800F14BFB04688461FFA8EFE12F063
:10468800400F14BFB146894612F0200F20F813805E
:1046980018BFB24620F81E9008BF8A4603F10208E8
:1046A80012F0100F03F1030E14BFB4468C461FFA24
:1046B80088F812F0080F1FFA8EFE03F104091FFA9A
:1046C80089F914BFB3468B4612F0040F20F818A0DE
:1046D80020F81EC014BFB2468A4603F1050812F03E
:1046E800020F03F1060C03F1070E20F819B01FFAA8
:1046F8008EFE14BFB14689461FFA88F812F0010FE2
:104708001FFA8CFC14BF32460A4620F818A020F87D
:104718001C9020F81E200137B5F804E0BFB203F161
:104728000802BE4592B29ED803F109020A3392B23A
:104738009BB252005B0001994FF40046865249082B
:10474800C65200221423C4F80425304EC4F80C25A0
:10475800C4F80835C4F81425C4F81025C4F8200591
:10476800C4F82415C4F82825C4F82C25EB79316839
:104778001B01CE18C95C737803F01F0343EA411389
:104788000121C4F86035C4F80015C4F81021A160EF
:10479800D4F81031002BFBD000234FF0FF32C4F8BF
:1047A8001031C4F80035C4F8602500F07FFFFFF72A
:1047B8002FFE286107B0BDE8F08FD4F86435002BD0
:1047C800BFF6BFAED4F86835002BBFF6BAAED4F842
:1047D8006C35002BBFF6B5AE36E7D4F86435002B40
:1047E800BFF6A6AED4F86835002BBFF6A1AED4F854
:1047F8006C35002BBFF69CAE26E7704704230222D7
:1048080099E700BF10650D0004650D0094E30320CF
:10481800F0ED00E0001000E00D80FFFF0680FFFFD4
:1048280043888B42F0B545D9057AC2F30743C2F3F2
:104838000724D6B245B16B436C436E43C3F30723D9
:10484800C4F30724C6F3072690F806C0C768BCF16E
:10485800060F0CBF042503256943BCF1080F07EBBD
:10486800010524D84FF0010E0EFA0CFE1EF4D27F7B
:104878000CD11EF0400F0DD11EF0100F17D0FF2BDA
:1048880008BFFE237B546E70AC70F0BD7C546B7017
:10489800AE70F0BD7B546C70AE70037A120E0BB91B
:1048A800D2B202E05A43C2F30722EA70F0BD7B5449
:1048B8006C70AE70F0BD42EA012242EA00407047D7
:1048C8004A1C037AD2B29A4270B51ED0013B13F04B
:1048D800FF03C4680CD0FF291FBF110201F1FF318B
:1048E80091FBF3F39BB204BF4FF6FF7191FBF3F317
:1048F8002546291B868889B28E4205D929785943CD
:10490800091205F8011BF4E7027270BD8288C068BD
:10491800002101F08ABD000008B500F0E3FC00F0BA
:10492800E1FC014B186008BD94E3032070470000C8
:1049380010B501F01FF9094C094900F05EFF01208C
:1049480000F030FE2046FFF792FD2046FF21FFF7DA
:10495800B7FF2046BDE81040FFF7C0BD9CE3032029
:1049680024650D0010B50D4C01F004F90C4900F058
:1049780044FF2046FFF7CAFF002211461046FFF702
:104988009AFF084B0246186000212046FFF748FFAF
:104998002046BDE81040FFF7A1BD00BF9CE30320FF
:1049A800CD640D0098E3032010B5044601F0E2F849
:1049B800384900F022FF2368062B62D8DFE803F0AD
:1049C800040F19242F394400FF213348FFF778FFDB
:1049D8003148FFF79BFF0021FF2208463EE0FF21F8
:1049E8002D48FFF76DFF2C48FFF790FF0022FF21AD
:1049F80033E0FF212848FFF763FF2748FFF786FFCA
:104A0800FF221146002029E0FF212348FFF758FF25
:104A18002148FFF77BFF00221146FF201EE0FF21FF
:104A28001D48FFF74DFF1C48FFF770FFFF220021CC
:104A380013E0FF211848FFF743FF1748FFF766FF09
:104A4800FF210022084609E0FF211348FFF738FF3D
:104A58001148FFF75BFFFF2211461046FFF72BFFB7
:104A68000E4B0246186000210B48FFF7D9FE0A4892
:104A7800FFF734FD4FF47A7000F036FF23680133F6
:104A880023602046FFF76EFF2368072B04BF00232F
:104A9800236010BD3C650D009CE3032098E30320D0
:104AA80010B5084C00F01EFC1222012120460223FA
:104AB800FFF702FD2046044A0449BDE8104001F012
:104AC8004DBB00BF9CE3032038E3032021440D00C5
:104AD8007047000070B5054601F04CF80649074ECE
:104AE80000F08BFE0024315D01222846013400F0DD
:104AF80027F9082CF7D170BD56650D00C5E20320D3
:104B080038B5044601F036F84C4900F076FE636883
:104B1800092B00F29280DFE803F005141D2B3947BA
:104B280055636A81464B01221978204600F04DF9F9
:104B3800642000F0D9FE434B01221A7063681344C5
:104B48006AE03F4D01222978204600F03EF9012213
:104B5800697854E03A4D01222978204600F035F969
:104B680001226978204600F030F90122A97846E050
:104B7800334D01226978204600F027F90122A978EF
:104B8800204600F022F90122E97838E02C4D012274
:104B9800A978204600F019F90122E978204600F0AA
:104BA80014F9012229792AE0254D0122E9782046C5
:104BB80000F00BF901222979204600F006F90122BC
:104BC80069791CE01E4D01222979204600F0FDF884
:104BD80001226979204600F0F8F80122A9790EE04F
:104BE800174D01226979204600F0EFF800E0144DD6
:104BF800A9790122204600F0E8F8E9790122204647
:104C080000F0E3F8642000F06FFE0E4B1A7863683A
:104C18000AB1013300E0013B636038BD084B012253
:104C2800D979204600F0D1F8642000F05DFE636871
:104C3800013B6360034B00221A7038BD6B650D00A1
:104C4800C5E20320C4E2032000F04CBB10B50446C3
:104C580001F064FA036821469B68BDE810401847D4
:104C680008B501F05BFA03685B699847C0B208BDF4
:104C780038B504460D4601F051FA217841F020017B
:104C880001F05EF82846FFF7E1FF01F047FA01F06E
:104C98005EF801F043FA2178012241F0200101F089
:104CA80046F8BDE83840FFF7DBBF70B50646144646
:104CB8000D4601F033FA317841F0200101F040F857
:104CC8002846FFF7C3FF2046FFF7C0FF01F026FA8A
:104CD800BDE8704001F03BB82DE9F0419DF818603F
:104CE800072998BF1E4601F0070790463146012460
:104CF8000546BC40FFF7BCFFB8F1000F01D00443E4
:104D080001E020EA0404E2B231462846BDE8F04159
:104D1800FFF7CBBF10B5072928BF0721017004464C
:104D280001F0FCF900F0F4FF2046FF220021FFF714
:104D3800BCFF2046FF220121BDE81040FFF7B5BFA8
:104D480007B50123B2FA82F2009352090023FFF754
:104D5800C3FF03B05DF804FB38B504460D4601F007
:104D6800DDF9217841F0200100F0EAFF0DB91220A9
:104D780000E01320FFF76AFF01F0D0F900F0E7FF29
:104D880001F0CCF92178012241F0200100F0CFFF99
:104D9800BDE83840FFF764BF38B505460C4601F05A
:104DA800BDF9297841F0200100F0CAFF1220FFF771
:104DB8004DFFE0B2FFF74AFF200AFFF747FF01F077
:104DC800ADF9BDE8384000F0C2BF0829F8B501F0D8
:104DD80007060C4634BF1421152105461746FFF770
:104DE80047FF0123B3400FB1034301E020EA030367
:104DF800082CDAB2284634BF12211321BDE8F84046
:104E0800FFF753BF00F06EBA072106224FF0050CDA
:104E180080E806107047000070B515461C460E461F
:104E280000F0A8FE084900F0E8FCB0B2012101F04A
:104E380011F9A8B2012101F00DF9A0B20121BDE8D4
:104E4800704001F007B900BF93650D0070B51646B4
:104E58001C460D4600F08EFE4C4900F0CEFC0E209C
:104E680001F022F94A4B421E186040F246239A424A
:104E780009D8A4B22046012101F0FDF84FF47A7058
:104E880000F032FD7BE0A0F51273B3F5926F09D202
:104E9800B6B23046012101F0EEF84FF47A7000F016
:104EA80023FD52E0A0F5DB63B3F5127F10D2A4B264
:104EB80001212046B6B201F0DEF80121304601F0AA
:104EC800DAF84FF47A7000F00FFD002120463AE03E
:104ED800A0F51263B3F5127FADB20AD201212846BC
:104EE80001F0C9F84FF47A7000F0FEFC0021284662
:104EF80047E0A0F66833B3F5127F0FD201212846A8
:104F0800A4B201F0B8F80121204601F0B4F84FF43A
:104F18007A7000F0E9FC002128462EE0A0F55B60DD
:104F2800B0F5127F4FF00101B6B2284610D201F059
:104F3800A2F80121304601F09EF84FF47A7000F093
:104F4800D3FC0021284601F096F80021304618E0ED
:104F580001F091F8A4B20121304601F08CF801214A
:104F6800204601F088F84FF47A7000F0BDFC00216B
:104F7800284601F080F80021304601F07CF8002135
:104F88002046BDE8704001F076B800BFA3650D006B
:104F9800B0E3032000F0A6B97047000008B500F0A0
:104FA800E9FD0249BDE8084000F027BCB5650D00E1
:104FB80010B541680131416089B20446FFF7ECFE43
:104FC800FA2000F091FC20460021BDE81040FFF7D0
:104FD800E3BE00F087B9072106224FF0050C80E8F0
:104FE8000610704770B515461C460E4600F0C2FD07
:104FF800084900F002FCB0B2012101F02BF8A8B278
:10500800012101F027F8A0B20121BDE8704001F0AC
:1050180021B800BFCC650D0010B5044600F0AAFD0C
:10502800024900F0EAFB0023E36010BDCD640D00E7
:10503800F8B504461D460F46164600F09BFD474945
:1050480000F0DBFBE368062B7ED8DFE803F0040EF4
:10505800182935465B00ADB22846012101F00BF84E
:105068004FF47A7000F040FC67E0B6B23046012198
:1050780001F001F84FF47A7000F036FC3FE0ADB271
:1050880001212846B6B200F0F6FF0121304600F0B3
:10509800F2FF4FF47A7000F027FC002128462CE03C
:1050A800BFB20121384600F0E6FF4FF47A7000F0F5
:1050B8001BFC0021384642E0BFB201213846ADB2A0
:1050C80000F0D9FF0121284600F0D5FF4FF47A708F
:1050D80000F00AFC002138462DE0BFB20121384615
:1050E800B6B200F0C8FF0121304600F0C4FF4FF40B
:1050F8007A7000F0F9FB0021384600F0BCFF00216F
:1051080030461CE0BFB201213846B6B200F0B3FF0A
:10511800ADB20121304600F0AEFF0121284600F073
:10512800AAFF4FF47A7000F0DFFB0021384600F048
:10513800A2FF0021304600F09EFF0021284600F023
:105148009AFFE3680133E360E368072B04D1204644
:10515800BDE8F840FFF760BFF8BD00BFDF650D0090
:1051680000F0C0B87047000010B5094C00F002FD0F
:10517800084900F042FB2046FFF779F92046FF2155
:10518800FFF79EFB2046BDE81040FFF7A7B900BF18
:10519800BCE30320F4650D0010B500F0EBFC3949C1
:1051A800394C00F02AFB0E2000F07EFF20603748C3
:1051B800FFF7ACFB2368364C5A1EB2F5FF7F06D2C8
:1051C8003248FFF7A3FB0021FF22084649E06FF4AD
:1051D800FF729A18B2F5FF7F05D82C48FFF796FBA7
:1051E8000022FF213CE0A3F2FE32B2F5FF7F06D891
:1051F8002648FFF78BFBFF221146002031E0A3F27F
:10520800FD52B2F5FF7F06D82048FFF77FFB00224A
:105218001146FF2025E0A3F2FC72B2F5FF7F05D806
:105228001A48FFF773FBFF22002119E0A3F6FB12CF
:10523800B2F5FF7F06D81548FFF768FBFF2100226B
:1052480008460EE0A3F6FA33B3F5FF7F0F4803D8FC
:10525800FFF75CFBFF2202E0FFF758FB0022114634
:105268001046FFF728FB0021024620600748FFF799
:10527800D7FA0648FFF732F9C820BDE8104000F019
:1052880033BB00BF0A660D00B4E30320BCE3032070
:10529800B8E3032010B5084C00F024F812220121CD
:1052A80020460223FFF708F92046044A0449BDE8CE
:1052B800104000F053BF00BFBCE3032038E30320D5
:1052C80021440D0008B5024B1B689B68019308BD7B
:1052D8006802030008B5024B1B68DB68019308BD30
:1052E8006802030008B5024B1B681B68019308BDE0
:1052F8002C02030008B5024B1B685B68019308BDCC
:105308002C02030008B5024B1B689B68019308BD7B
:105318002C02030008B5024B1B68DB68019308BD2B
:105328002C02030008B5024B1B681B69019308BDDA
:105338002C02030008B5024B1B681B6B019308BDC8
:105348002C02030008B5024B1B68DB69019308BDFA
:105358003002030008B5024B1B681B6A019308BDA5
:105368003002030008B5024B1B685B68019308BD57
:105378001802030008B5024B1B68DB68019308BDDF
:105388001802030008B5024B1B681B69019308BD8E
:105398001802030008B5024B1B685B69019308BD3E
:1053A8001802030008B5024B1B689B68019308BDEF
:1053B8004802030008B5024B1B681B69019308BD2E
:1053C8004802030008B5024B1B685B69019308BDDE
:1053D8004802030008B5024B1B681B6B019308BD0C
:1053E8004802030008B5024B1B685B6C019308BDBB
:1053F8004802030008B5024B1B685B69019308BDAE
:105408006402030008B5024B1B681B68019308BDC2
:105418003C02030008B5024B1B68DB68019308BD1A
:105428003C02030008B5024B1B681B69019308BDC9
:105438003C02030008B5024B1B685B69019308BD79
:105448003C02030008B5024B1B689B69019308BD29
:105458003C02030008B5024B1B68DB69019308BDD9
:105468003C02030008B5024B1B681B6A019308BD88
:105478003C02030008B5024B1B689B6A019308BDF8
:105488003C02030008B5024B1B68DB68019308BDAA
:105498002802030008B5024B1B685B69019308BD2D
:1054A8002802030008B5024B1B689B69019308BDDD
:1054B8002802030008B5024B1B68DB69019308BD8D
:1054C8002802030008B5024B1B681B6A019308BD3C
:1054D8002802030008B5024B1B685B6A019308BDEC
:1054E8002802030008B5024B1B689B6A019308BD9C
:1054F8002802030008B5024B1B68DB6A019308BD4C
:105508002802030008B5024B1B681B6B019308BDFA
:105518002802030008B5024B1B685B6B019308BDAA
:105528002802030008B5024B1B681B6C019308BDD9
:105538002802030008B5024B1B681B68019308BDCD
:105548004C02030008B5024B1B685B68019308BD59
:105558004C02030008B5024B1B681B69019308BD88
:105568004C02030008B5024B1B685B69019308BD38
:105578004C02030008B5024B1B689B69019308BDE8
:105588004C02030008B5024B1B68DB69019308BD98
:105598004C02030008B5024B1B681B6A019308BD47
:1055A8004C02030008B5024B1B685B68019308BDF9
:1055B8002002030008B5024B1B685B69019308BD14
:1055C8002002030008B5034B1B68D3F88830019309
:1055D80008BD00002002030008B5034B1B68D3F880
:1055E8009430019308BD00002002030008B5024B67
:1055F8001B685B68019308BD4002030008B5024BB5
:105608001B689B68019308BD4002030008B5024B64
:105618001B68DB68019308BD4002030008B5024B14
:105628001B681B69019308BD4002030008B5024BC3
:105638001B685B69019308BD4002030008B5024B73
:105648001B689B69019308BD4002030008B5024B23
:105658001B68DB69019308BD4002030008B5024BD3
:105668001B681B6A019308BD4002030008B5024B82
:105678001B681B6B019308BD4002030008B5024B71
:105688001B685B6B019308BD4002030008B5024B21
:105698001B68DB6B019308BD4402030008B5024B8D
:1056A8001B681B68019308BD1C02030008B5024B68
:1056B8001B685B68019308BD1C02030000221146A9
:1056C8004068FFF7CBBF002211464068FFF7D6BFFE
:1056D80000224068FFF7CABF002281F0010140683C
:1056E800FFF7B4BF00231A4619464068FFF7A6BF64
:1056F80000231A4619464068FFF798BF0022114652
:105708004068FFF78BBF002211464068FFF776BF5D
:10571800002202214068FFF779BF00231A4640683B
:10572800FFF764BF024B03225A60024A1A607047AF
:10573800D0E3032024660D00704710B50446FEF739
:10574800A6FC204610BD000070B5084B0360044657
:1057580000250E4640F80C5FFFF73CFE30462671E8
:10576800FFF7F0FDA560204670BD00BF58660D002C
:105778000079FFF7EFBD0000044B00204FF6FF72E1
:10578800187058809A80FFF70DBF00BFD8E3032038
:10579800F8B506460D468F180024BD420CD0336874
:1057A80015F8011B9B6830469847002801DB044424
:1057B800F3E7002C08BF04462046F8BD70B505463F
:1057C8000C46084649B100F061FE2B6802462146A6
:1057D8002846DB68BDE87040184770BD03689B68C1
:1057E800184738B50D210546FFF7F8FF0A2104468A
:1057F8002846FFF7F3FF204438BD38B50546FFF7C4
:10580800DDFF04462846FFF7ECFF204438BD30B5DD
:105818008BB00B4600218DF82410012A98BF0A226C
:105828000DF12304B3FBF2F505FB123303F0FF037C
:10583800092B94BF30333733DBB2214604F80139E2
:105848002B46002DEED1FFF7B9FF0BB030BD10B4D9
:105858002AB903685DF8044B9B68C9B21847D2B2ED
:105868005DF8044BFFF7D3BFFFF7F1BF2DE9F04117
:1058780007460E4615462AB90368C9B29B68BDE8B3
:10588800F04118470A2A02D1002901DA04E0D2B20D
:10589800BDE8F041FFF7BBBF2D21FFF79FFF2A4668
:1058A800044671423846FFF7B2FF2044BDE8F08154
:1058B80038B50546FFF7DAFF04462846FFF791FF9B
:1058C800204438BD014B024A1A607047E0E30320C8
:1058D80018670D00024B1A68024B1A60704700BF28
:1058E800D0E20320E4E303200021FFF763BE10B5F4
:1058F8008368044613B1032201469847204610BD29
:1059080010B50446FFF7F3FF204610BD0348044ACC
:1059180004490023836000F021BC00BFE8E30320B2
:1059280038E3032009590D0008B50C4B33B100F0DA
:1059380021F903681B699847002809DC084B63B103
:1059480000F082F903681B699847002803DC08BD4A
:10595800AFF30080F2E7AFF3008008BD000000005D
:105968000000000008B5FFF7DFFFFFF713FD014B4C
:10597800186008BD34E7032007B5002300931A46D2
:105988006FF07701FFF728FE03B05DF804FB000015
:1059980007B543880A2B08D0502B09D1094B1B683F
:1059A8003BB103B05DF804EB1847FFF7E5FF06E0ED
:1059B800002300931A466FF07701FFF70DFE03B03E
:1059C8005DF804FBF8E3032010B5FFF7CBFC0446B1
:1059D80000F034FD074B13B12046AFF300800021DF
:1059E8000448FFF753FE00210348BDE81040FFF7C5
:1059F800E9BD00BF0000000099590D00704710B5BF
:105A08000446FEF744FB204610BDF0B5037D062B87
:105A18008DB00E4600F104074FF0000402D000F1EB
:105A2800080518E00CAD394605F8304D2F232A46F5
:105A38000A20FFF7DFFC284600F028FD33680246FD
:105A4800DB682946304698470FE024B12E213046BE
:105A5800FFF7C4FE044415F8011D0A223046FFF77B
:105A680003FFBD420444F0D120460DB0F0BD000054
:105A780010B5054B0446112240F8043B002100F004
:105A8800D4FC204610BD00BF74670D000346074ACA
:105A980010B543F8042B01F1100251F8044B43F8F8
:105AA800044B9142F9D10A781A7010BD74670D0041
:105AB80010B59DF8084044EA032343EA024242EA4B
:105AC800016104234160037510BD37B50D788B78EB
:105AD8004A78C97800912946FFF7EAFF03B030BD3C
:105AE8004174704770470021007CFFF743BD0121D6
:105AF800007CFFF73FBD007CFFF734BD007CFFF75B
:105B080029BD38B50446007C0D46FFF72BFD00285B
:105B180001DC607C20B12946207CFFF733FD0120A1
:105B280038BD007CFFF736BD10B50446FEF7AFFA66
:105B3800204610BD10B50446002363604FF47A7305
:105B4800A360054B23600123084621746374114642
:105B5800FFF7F0FC204610BD88670D000022007C8E
:105B6800FFF7F0BC10B514220446002100F05DFCDC
:105B7800204610BD30B50E4D87B001A8FFF7F2FFE3
:105B8800296811F0010410D12846FEF784FA60B1A3
:105B980001AA21460748FFF7CDFF2846FEF780FAFD
:105BA800054A0649034800F0D9FA024807B030BD53
:105BB800FCE3032000E4032038E30320ED5A0D0042
:105BC800704741747047007CFFF754BC007CFFF7B6
:105BD80029BC007CFFF736BC007CFFF72BBC007C9F
:105BE800FFF738BC10B50446FEF751FA204610BD41
:105BF80070B5457C04460E4625B9007CFFF73AFC93
:105C0800002805DD3146207CBDE87040FFF702BC66
:105C1800284670BD10B50446084611460022626049
:105C28004FF47A72A260054A2260012220746274DD
:105C38001A46FFF7E7FB204610BD00BFB8670D0006
:105C4800007CFFF70FBC000038B50C4D296811F037
:105C5800010411D12846FEF71EFA68B1084A094B1B
:105C680009482146FFF7D6FF2846FEF719FA074AE2
:105C78000749054800F072FA034838BDACE4032030
:105C8800B0E4032028E4032014E4032038E30320CD
:105C9800C95B0D007047F8B5064615460C468F18C7
:105CA800BC4206D0336814F8011B9B6830469847FD
:105CB800F6E72846F8BD0022007CFFF703BC002168
:105CC800007CFFF707BC0021007CFFF70BBC00211C
:105CD800007CFFF70FBC0021007CFFF713BC10B558
:105CE8000446FEF7D4F9204610BD000010B504465E
:105CF8004FF47A730846A3600021044B2074616056
:105D08002360FFF70FFC204610BD00BFE8670D00B9
:105D180000231A461946007CFFF7B4BB13B50024CC
:105D2800007C0094FFF7B6FBC0B202B010BD01239F
:105D3800D2B2C9B2FFF7F2BF0022007CFFF7B2BBB4
:105D4800C9B2FFF7F9BF0022007CFFF7B3BB0121FE
:105D5800FFF7F9BF0021007CFFF7DCBB00221146EA
:105D68004068FFF77BBC002211464068FFF786BCFD
:105D780000224068FFF77ABC002281F001014068E8
:105D8800FFF764BC00231A4619464068FFF756BC63
:105D980000231A4619464068FFF748BC00221146FE
:105DA8004068FFF73BBC002211464068FFF726BC5D
:105DB800002202214068FFF729BC00231A464068E8
:105DC800FFF714BC10B103685B681847704738B513
:105DD80004460068D0B1FFF7E5FAB8B9237C1BB9CF
:105DE800206808B1FFF7E6FA656855B1AB681BB1E2
:105DF80003222946284698472846FEF748F90023F3
:105E080063602068FFF7DEFA0023236038BD0000D6
:105E180038B50B4B03600446D0F8CC0108B1FEF747
:105E280038F9D4F8C4512DB12846FFF7D0FF2846D9
:105E3800FEF72DF9A06808B1FFF7C4FF204638BD6A
:105E480010680D0038B50D4C0D4B2360002502235A
:105E580004F5E4706360A560C4F8C451C4F8C8517F
:105E6800FFF7C0FA074BC4F8CC5123602046064A16
:105E78000649BDE8384000F071B900BF34E5032099
:105E880078680D0010680D0038E30320195E0D00D6
:105E9800002211464068FFF7C1BB00221146406846
:105EA800FFF7DCBB002211464068FFF7E7BB002282
:105EB8004068FFF7DBBB002281F001014068FFF773
:105EC800C5BB00231A4619464068FFF7B7BB002335
:105ED8001A4619464068FFF7A9BB002211464068D8
:105EE800FFF78CBB002202214068FFF78FBB00231D
:105EF8001A464068FFF77ABB024B04225A60024AEE
:105F08001A60704704E7032044680D0000231A460E
:105F18004068FFF76BBB002202214068FFF776BBA1
:105F2800002211464068FFF769BB0022114640680D
:105F3800FFF774BB00231A4619464068FFF776BB83
:105F480000231A4619464068FFF778BB002281F003
:105F580001014068FFF77ABB00224068FFF786BB63
:105F6800002211464068FFF789BB002211464068AD
:105F7800FFF774BB70B58CB014460646FFF778FD82
:105F88000CAB0022114643F8302D2046FFF7A2F94A
:105F9800014658BB009B4BB35A68022A0ED00A2A06
:105FA80024D15C69112201A800F03FFA06238DF87C
:105FB800143001AD04F10803183405E0596930467E
:105FC8000431FFF782FD11E0186859682A4603C2B8
:105FD8000833A3421546F7D101A906A807ADFFF774
:105FE80055FD0FCD341D0FC42B6823700098FFF7A3
:105FF80069F930460CB070BD024B034A1A600022A2
:106008005A6070470CE7032078680D0010B5044605
:106018000F48FFF7ADFB28B1A4F10B03022B01D801
:10602800002010BD00F07AF8FFF794FE08B1012CAB
:10603800F6D9FFF709FEFFF703FE18B1A4F109032B
:10604800012BEDD9232C8CBF0020012010BD00BFEF
:1060580014E70320232838B504460D460AD8FF293B
:1060680008D0FFF7D3FF28B129462046BDE83840BD
:10607800FFF748B938BD38B504460D46FFF74AF969
:10608800FF2810D0062804D84D2323FA00F0C307B0
:1060980009D42046FFF7BAFF28B129462046BDE8B3
:1060A8003840FFF73FB938BD0D2810B504469CBFEE
:1060B8000E34A4B22046FFF7A9FF50B103212046B1
:1060C800FFF718F9032804D12046BDE81040FFF770
:1060D80031B9002010BD000070B50C4C0C4E0D4DB0
:1060E80000212046FFF730FB20460B4C324629465C
:1060F80000F034F801212046FFF726FB32462946F6
:106108002046BDE8704000F029B800BF14E703201E
:1061180038E3032041570D0024E7032038B50B4D21
:10612800296811F001040FD12846FDF7B4FF58B1D2
:1061380021460748FFF7DAFD2846FDF7B1FF054A73
:106148000549034800F00AF8014838BD38E703203C
:106158003CE7032038E303209D5C0D000B46014615
:10616800184600F049B90000184B1A68D1075CBFFF
:1061780001221A60164B1A68D2075CBF01221A6006
:10618800144B1A68D0075CBF01221A60124B1A68B8
:10619800D1075CBF01221A60104B1A68D2075CBF96
:1061A80001221A600E4B1A68D0075CBF01221A60E0
:1061B8000C4B1A68D1075CBF01221A600A4B1A6897
:1061C800D2075CBF01221A60704700BF6CE703204A
:1061D80068E7032064E7032060E703205CE7032007
:1061E80058E7032054E7032050E70320244B1A689C
:1061F800D0075CBF01221A60224B1A68D1075CBF26
:1062080001221A60204B1A68D2075CBF01221A606B
:106218001E4B1A68D0075CBF01221A601C4B1A6813
:10622800D1075CBF01221A601A4B1A68D2075CBFFB
:1062380001221A60184B1A68D0075CBF01221A6045
:10624800164B1A68D1075CBF01221A60144B1A68F2
:10625800D2075CBF01221A60124B1A68D0075CBFD4
:1062680001221A60104B1A68D1075CBF01221A601C
:106278000E4B1A68D2075CBF01221A60704700BF34
:106288009CE7032098E7032094E7032090E7032086
:106298008CE7032088E7032084E7032080E70320B6
:1062A8007CE7032078E7032074E7032070E70320E6
:1062B800244B1A68D0075CBF01221A60224B1A6867
:1062C800D1075CBF01221A60204B1A68D2075CBF55
:1062D80001221A601E4B1A68D0075CBF01221A609F
:1062E8001C4B1A68D1075CBF01221A601A4B1A6846
:1062F800D2075CBF01221A60184B1A68D0075CBF2E
:1063080001221A60164B1A68D1075CBF01221A6075
:10631800144B1A68D2075CBF01221A60124B1A6824
:10632800D0075CBF01221A60104B1A68D1075CBF06
:1063380001221A600E4B1A68D2075CBF01221A604C
:10634800704700BFCCE70320C8E70320C4E7032059
:10635800C0E70320BCE70320B8E70320B4E7032025
:10636800B0E70320ACE70320A8E70320A4E7032055
:10637800A0E70320184B1A68D1075CBF01221A60F6
:10638800164B1A68D2075CBF01221A60144B1A68B0
:10639800D0075CBF01221A60124B1A68D1075CBF94
:1063A80001221A60104B1A68D2075CBF01221A60DA
:1063B8000E4B1A68D0075CBF01221A600C4B1A6892
:1063C800D1075CBF01221A600A4B1A68D2075CBF6A
:1063D80001221A60704700BFECE70320E8E70320BA
:1063E800E4E70320E0E70320DCE70320D8E7032005
:1063F800D4E70320D0E7032010B5054C13462CB191
:106408000A4601460220AFF3008010BD204610BDA9
:106418000000000010B5431E0A44914204D011F850
:10642800014B03F8014FF8E710BD024403469342BD
:1064380002D003F8011BFAE77047000038B5124B89
:106448001C68A36B0546D3B91820FFF727F943F258
:106458000E33A06303804AF6CD33438041F23423E0
:1064680083804EF26D63C3804DF6EC630381052390
:1064780043810B23838101220023C0E90423A36BFA
:1064880000221D615A6138BD34E30320034613F826
:10649800012B002AFBD1181A013870471D400D0046
:1064A80059400D0085400D0089400D000000000096
:1064B8004144435F415F4E454F504958454C206227
:1064C8006567696E0063616C6C656420646F6974EC
:1064D800004144435F415F4E454F504958454C2069
:1064E80070726F63657373004144435F415F534546
:1064F8005249414C20626567696E000000C0014046
:1065080000100240002002402C010000180000008A
:10651800F40100002C01000050000000434F4E54CD
:1065280041444F525F4E454F504958454C20626593
:1065380067696E00434F4E5441444F525F4E454F7A
:10654800504958454C2070726F636573730041550C
:10655800544F5F494E43524549424C452062656756
:10656800696E004155544F5F494E43524549424C6C
:10657800452070726F636573730063616C6C65644A
:1065880020636C65616E4175746F004144435F41DF
:106598005F52474220626567696E004144435F412C
:1065A8005F5247422070726F6365737300434F4EAA
:1065B8005441444F525F42494E4152494F2062650F
:1065C80067696E00434F4E5441444F525F524742F1
:1065D80020626567696E00434F4E5441444F525FD5
:1065E8005247422070726F63657373004144435F82
:1065F800415F4E454F504958454C322062656769A6
:106608006E0063616C6C65642070726F6365737390
:1066180000000000000000000000000023570D00EB
:1066280019570D000F570D0005570D00F9560D00AD
:10663800ED560D00E1560D00D9560D00CF560D0050
:10664800C5560D007D5F0D00000000000000000031
:1066580041570D0043570D0066006C6E00666E00D2
:10666800636F64650064657461696C000D0A0025D8
:106678003031307520005D20002564002C20002872
:10668800293A2000205B00636F6465203D200025C7
:10669800690064657461696C73203D2000626175EE
:1066A800640053657269616C0053657269616C318D
:1066B800007479706500706172616D00636D6400CB
:1066C800696400686E64007374726D0066696C7446
:1066D800006C766C0061646448616E646C6572007D
:1066E80072656D6F766548616E646C657200656E83
:1066F800756D48616E646C657273004A534F4E53F2
:10670800747265616D4C6F6748616E646C65720088
:10671800617070006E6F6E65007472616365006908
:106728006E666F007761726E006572726F720070CC
:10673800616E696300616C6C005A00252B3033640C
:106748003A253032750025592D256D2D256454259F
:10675800483A254D3A2553257A0061736374696D6B
:10676800650000000000000000000000135A0D0042
:10677800055A0D00075A0D00000000000000000037
:10678800ED5A0D00315B0D000B5B0D0099570D00A4
:10679800055B0D00EF5A0D00F75A0D002B5B0D003D
:1067A800FF5A0D00E95A0D0000000000000000002B
:1067B800C95B0D00ED5B0D00F95B0D0099570D00ED
:1067C800D55B0D00E15B0D00DB5B0D00E75B0D00A9
:1067D800CB5B0D00CF5B0D00000000000000000047
:1067E8009D5C0D00E75C0D00BF5C0D009F5C0D001B
:1067F800C75C0D00CF5C0D00D75C0D00DF5C0D00A1
:106808000000000000000000C35D0D00B95D0D0030
:10681800AF5D0D00A55D0D00995D0D008D5D0D004E
:10682800815D0D00795D0D006F5D0D00655D0D00EA
:106838007D5F0D000000000000000000F75E0D0005
:10684800ED5E0D00E35E0D00995E0D00D75E0D0054
:10685800CB5E0D00BF5E0D00B75E0D00AD5E0D0096
:10686800A35E0D007D5F0D00000000000000000029
:10687800155F0D001F5F0D00295F0D00335F0D00D0
:106888003D5F0D00495F0D00555F0D00615F0D0014
:10689800695F0D00735F0D007D5F0D000000000053
:1068A80000000000000000000000000000000000E0
:1068B80000000000000000000000000000000000D0
:1068C80000000000000000000000000000000000C0
:1068D80000000000000000000000000000000000B0
:1068E80000000000000000000000000000000000A0
:1068F800000000000000000000000000430000004D
:10690800B9420D0055430D0015440D0021490D00F5
:10691800A94A0D00514C0D000D4E0D009D4F0D0064
:10692800DB4F0D0069510D009D520D002D570D00D4
:1069380081570D00CD580D00DD580D0015590D007B
:106948004D5E0D00015F0D0001600D00E1600D005E
:1069580071610D00F5610D00B9620D007D630D00D8
:08696800000000000000000027
:10697000070000000000000001000000020000000D
:1069800003000000040000000500000006000000F5
:1069900007000000000102030405060708090A0BAE
:1069A0000C0D0E0F050000000600000001000102A2
:1069B000030405060700000062670D0000000000E8
:1069C000A4680D00C4680D00E4680D00000000001C
:1069D00000000000000000000000000004690D003D
:1069E00000000000000000000000000000000000A7
:1069F0000000000000000000000000000000000097
:106A00000000000000000000000000000000000086
:106A1000000000000000000000000000D4E203209D
:106A2000FFFFFFFF00000102030405060708090A33
:106A30000B0C0D0E0F101112131415161718191A2E
:086A40001B1C1D1E1F20280075
:046A48007856341236
:04000003D0004018D1
:00000001FF
